:020000040000FA
:100000000C9478010C94A9010C94A9010C94A901F9
:100010000C94A9010C94A9010C94A9010C94A901B8
:100020000C94A9010C94A9010C94A9010C94A901A8
:100030000C94A9010C94A9010C94A9010C94A90198
:100040000C94A9010C94A9010C94A9010C94A90188
:100050000C94B8090C94A9010C94A9010C946E0994
:100060000C94A9010C9438090C940E090C94A90164
:100070000C94A9010C94A9010C94A9010C94A90158
:100080000C94A9010C94A9010C94A9010C94A90148
:100090000C94A9010C94A9010C94A9010C94A90138
:1000A0000C94A9010C94A9010C94A9010C94A90128
:1000B0000C94A9010C94A9010C94A9010C94A90118
:1000C0000C94A9010C94A9010C94A9010C94A90108
:1000D0000C94A9010C94A9010C94A9010C94A901F8
:1000E0000C94A9010C94B1020C9461030C942003AC
:1000F0000C9464020C9403040C9415120C941E02CC
:100100000C943F030C9401120C9429120C94971137
:100110000C9442130C9449030C944F080C94BA119C
:100120000C941F120C9492030C9465030C94FB0125
:100130000C9432030C943B030C9457030C9450061C
:100140000C94B0110C940A020C94A6110C94D411C6
:100150000C9426030C945B030C94280A0C942A0339
:100160000C94CE010C949C110C9445030C94350313
:100170000C94C3030C94A7070C94F7110C94DE1194
:100180000C9460030C9492110C94C2110C945303C0
:100190000C94E8110C944D030C940B120C94510622
:1001A0000C942C020C94CA110C942E03005EBCE239
:1001B000613FDD83C29C7E20A3FD1F41009D23BEC5
:1001C00046DB65F88C11AF32CA57E9740000210094
:1001D000240027002A002D00300033000101000018
:1001E000040107010A0100002200250028002B005D
:1001F0002E003100340002010000050108010B014E
:1002000000000A0B02090C0D0E0807030401000090
:1002100000000000000000000000000000000000DE
:10022000000000000000000000000000121110009B
:1002300000000000000000000000000000000000BE
:10024000000000000000000020002300260029001C
:100250002C002F00320000010000030106010901FB
:1002600005050505070508080808020202020A0A32
:100270000808040404040101010101010101030350
:10028000030303030303040707070C0C0C0C0C0CFB
:100290000C0C0202020206060606060606060B0BF8
:1002A0000B0B0B0B0B0B0102102020080810204039
:1002B000102040800201020108040201010204082A
:1002C00010204080804020100804020180040201B8
:1002D0008040201008040201080402010102040801
:1002E000102040800102040810204080280A421398
:1002F00011241FBECFEFD1E2DEBFCDBF00E00CBFA7
:1003000024E0AAE2B3E001C01D92A93AB207E1F7E6
:1003100013E0A0E0B2E0E8EEFEE200E00BBF02C0B6
:1003200007900D92AA32B107D9F711E0C7E7D1E0E3
:1003300000E006C021970109802FFE010E942715C9
:10034000C637D10780E00807A9F70E94330B0C9449
:1003500062170C94000096E0899FD0011124A25EE0
:10036000BB4F90967C936E935F9791E091969C9390
:100370009197E0918B04F0918C0490918A049923D9
:1003800039F0309751F0811108C080913A041994E6
:10039000309719F05C968C91FACF0895AF92BF9286
:1003A000CF92DF92EF92FF920F931F93CF93DF9341
:1003B0006C017B018B01040F151FEB015E01AE1870
:1003C000BF08C017D10759F06991D601ED91FC9192
:1003D0000190F081E02DC6011995892B79F7C501AF
:1003E000DF91CF911F910F91FF90EF90DF90CF9011
:1003F000BF90AF900895FC01538D448D252F30E0C0
:10040000842F90E0821B930B541710F0CF96089521
:1004100001970895FC01918D828D981761F0A28D4E
:10042000AE0FBF2FB11D5D968C91928D9F5F9F7314
:10043000928F90E008958FEF9FEF0895FC01918DCA
:10044000828D981731F0828DE80FF11D858D90E037
:1004500008958FEF9FEF0895FC01918D228D892FD4
:1004600090E0805C9F4F821B91098F7399270895BC
:1004700083E593E00E942C0221E0892B09F420E01F
:10048000822F0895FC01A48DA80FB92FB11DA35A86
:10049000BF4F2C91848D90E001968F739927848FA4
:1004A000A689B7892C93A089B1898C9183708064C7
:1004B0008C93938D848D981306C00288F389E02D68
:1004C00080818F7D80830895EF92FF920F931F9319
:1004D000CF93DF93EC0181E0888F9B8D8C8D9813F7
:1004E0001AC0E889F989808185FF15C09FB7F89403
:1004F000EE89FF896083E889F9898081837080644F
:1005000080839FBF81E090E0DF91CF911F910F9199
:10051000FF90EF900895F62E0B8D10E00F5F1F4FA8
:100520000F731127E02E8C8D8E110CC00FB607FCB7
:10053000FACFE889F989808185FFF5CFCE010E9445
:100540004202F1CFEB8DEC0FFD2FF11DE35AFF4F6F
:10055000F0829FB7F8940B8FEA89FB8980818062D3
:10056000CFCFCF93DF93EC01888D8823B9F0AA8990
:10057000BB89E889F9898C9185FD03C0808186FD5E
:100580000DC00FB607FCF7CF8C9185FFF2CF8081AD
:1005900085FFEDCFCE010E944202E9CFDF91CF91DE
:1005A000089580E090E0892B29F00E9438028111A3
:1005B0000E94000080E090E0892B49F080E090E00C
:1005C000892B29F00E94000081110E94000080E028
:1005D00090E0892B49F080E090E0892B29F00E947F
:1005E000000081110E94000080E090E0892B49F01A
:1005F00080E090E0892B29F00E94000081110C948A
:10060000000008958150823108F05AC0E82FF0E0D0
:100610008827E25FFC4F8F4F0C9427152E0332037F
:10062000200326032A03600335033B033F034503EE
:1006300049034D035303570360035B0361036503E1
:10064000809180008F778093800008958091800052
:100650008F7DF9CF80918000877FF5CF84B58F772C
:1006600084BD089584B58F7DFBCF8091B0008F77D6
:100670008093B00008958091B0008F7DF9CF809174
:1006800090008F77809390000895809190008F7DE7
:10069000F9CF80919000877FF5CF8091A0008F7770
:1006A0008093A00008958091A0008F7DF9CF809164
:1006B000A000877FF5CF809120018F778093200164
:1006C0000895809120018F7DF9CF80912001877F4F
:1006D000F5CFCF93DF93282F30E0F901E050FE4FA4
:1006E0008491F901EA55FD4FD491F901E05AFD4F8B
:1006F000C491CC23A1F081110E940203EC2FF0E001
:10070000EE0FFF1FEA5BFD4FA591B491EC91ED2335
:1007100081E090E009F480E0DF91CF91089580E0DE
:1007200090E0FACF862F0C9469031F93CF93DF9349
:10073000282F30E0F901E050FE4F8491F901EA558D
:10074000FD4FD491F901E05AFD4FC491CC23A9F09B
:10075000162F81110E940203EC2FF0E0EE0FFF1F15
:10076000EA51FE4FA591B4918FB7F894EC91111115
:1007700008C0D095DE23DC938FBFDF91CF911F910E
:100780000895DE2BF8CF862F642F0C949503CF931A
:10079000DF9390E0FC01EA55FD4F2491805A9D4F74
:1007A000FC0184918823C9F090E0880F991FFC0117
:1007B000E453FE4FA591B491FC01EA51FE4FC5915F
:1007C000D49161110DC09FB7F8948C91209582232C
:1007D0008C938881282328839FBFDF91CF91089530
:1007E000623051F49FB7F8943C91822F8095832317
:1007F0008C93E8812E2BEFCF8FB7F894EC912E2BB2
:100800002C938FBFEACF862F642F0C94C70390914F
:100810007B00977F90937B008653806480937C005D
:1008200080917A00806480937A0080917A0086FDBE
:10083000FCCF809178009091790008953FB7F894AB
:1008400080912F0390913003A0913103B091320336
:1008500026B5A89B05C02F3F19F00196A11DB11D1B
:100860003FBFBA2FA92F982F8827BC01CD01620F57
:10087000711D811D911D42E0660F771F881F991F12
:100880004A95D1F708958F929F92AF92BF92CF92DF
:10089000DF92EF92FF924B015C010E941E046B01FC
:1008A0007C010E941E046C197D098E099F09683E17
:1008B000734081059105A8F321E0821A9108A108EF
:1008C000B10888EEC80E83E0D81EE11CF11C81142B
:1008D0009104A104B10429F7FF90EF90DF90CF902D
:1008E000BF90AF909F908F9008952FB7F89460912C
:1008F0002B0370912C0380912D0390912E032FBF19
:1009000008950F931F93CF93DF93C82FD62F86E0C0
:10091000C89FF0011124E25EFB4F11A2878D90A1C8
:1009200081309105F1F058F082309105F1F1039793
:1009300009F440C0DF91CF911F910F910895662374
:10094000C9F361E070E08C2F0E94AB010E94750436
:10095000609376047093770480937804909379047D
:10096000E9CF0E94750400917604109177042091DC
:10097000780430917904AB01BC01401B510B620B30
:10098000730B8091880490918904B0E0A0E08417F3
:100990009507A607B70748F462E070E08C2FDF9157
:1009A000CF911F910F910C94AB0163E070E0D111D6
:1009B000C1CFF4CF70E060E0F1CFDC0180E06150A6
:1009C00090F09D919827E92FEF70F0E0E455FE4FED
:1009D0002491E92FE295EF70F0E0E454FE4FE491AA
:1009E000822F8E27ECCF0895DC012C911196ED918A
:1009F000FC91F8948181822B81839281322F3095F2
:100A00009323928387E090E00197F1F7818183231C
:100A1000818383E290E00197F1F790817894EFEC85
:100A2000F0E03197F1F7922381E009F480E0089536
:100A3000FC0190810180F281E02D292F209560FF3B
:100A400014C0F8948281822382838181892B8183DF
:100A5000A3E2B0E01197F1F78281982B928378940A
:100A600087ED90E00197F1F70895F8948281822351
:100A700082838181892B8183AFEFB0E01197F1F7F9
:100A80008281982B928378948FE090E0EBCFEF9265
:100A9000FF920F931F93CF93DF93EC01E62E08E0B4
:100AA00010E0FF24F39461E08E2D8F2109F460E0C3
:100AB000CE010E941805FF0C01501109A1F7F8940E
:100AC000E981FA8191818881809589238183E981F7
:100AD000FA81928188818095892382837894DF913D
:100AE000CF911F910F91FF90EF900895EF92FF9299
:100AF0000F931F93CF93DF938C017B0165E50E94D9
:100B00004705E70188E0E80EF11C6991C8010E94E1
:100B10004705CE15DF05C9F7DF91CF911F910F91E2
:100B2000FF90EF900895FC0190810180F281E02D0B
:100B3000F8948181292F20958223818378943DE741
:100B400043E050E0315029F1DA011197F1F780814B
:100B50008923C1F3F8948281822382838181892B46
:100B600081837894ABE7B7E01197F1F7F89481812E
:100B700082238183A3E1B1E01197F1F7808198236B
:100B800081E009F080E07894E3E6F6E03197F1F750
:100B9000089580E008956F927F928F929F92AF9216
:100BA000BF92CF92DF92EF92FF920F931F93CF935A
:100BB000DF9300D000D000D0CDB7DEB78C0180919C
:100BC0000204909103040E949305811102C080E009
:100BD00050C0B80180910204909103040E947605F0
:100BE0006EEB80910204909103040E9447058E01F0
:100BF0000F5F1F4F5E018AE0A80EB11C3801809084
:100C000002049090030488E0C82ED12CF12CEE242D
:100C1000E394C4010E94F4048111FE28EE0CE1E08B
:100C2000CE1AD108B1F7F801F1928F01AE16BF06C6
:100C300031F780910204909103040E949305813062
:100C400031F668E0C3010E94DD0499858913BFCFA6
:100C50008D818F3319F128F48F3109F0B8CF89E0F5
:100C600008C08F3529F08F3709F0B1CF8CE001C073
:100C70008BE029960FB6F894DEBF0FBECDBFDF9193
:100C8000CF911F910F91FF90EF90DF90CF90BF9089
:100C9000AF909F908F907F906F9008958AE0E9CFFA
:100CA000089590E080E00895CF93DF93EC0160E039
:100CB0008E810E94950361E08E810E94950360E021
:100CC0008E810E9495038BE891E00197F1F7DF9107
:100CD000CF910895CF92DF92EF92FF920F931F93DF
:100CE000CF93DF936C017C0187E0E80EF11CD0E02C
:100CF000C0E0062F10E0B8010C2E02C07595679574
:100D00000A94E2F76170F70181917F010E949503D7
:100D10002196C430D10579F7C601DF91CF911F919B
:100D20000F91FF90EF90DF90CF900C945406CF92EC
:100D3000DF92EF92FF920F931F93CF93DF93EC011B
:100D4000F62E642F8C810E9495038D818F3F19F0C0
:100D500060E00E9495030F2D10E08F8584FF25C071
:100D60006E0187E0C80ED11CF12CE12CB8010E2CCD
:100D700002C0759567950A94E2F76170F60181915A
:100D80006F010E949503FFEFEF1AFF0A88E0E81653
:100D9000F10461F7CE01DF91CF911F910F91FF9088
:100DA000EF90DF90CF900C945406B80184E07595D5
:100DB00067958A95E1F7CE010E946A066F2DCE01F4
:100DC000DF91CF911F910F91FF90EF90DF90CF9027
:100DD0000C946A0640E0682F8DE894E00C94970626
:100DE0009091A004691710F06FEF690FE62FF0E003
:100DF000E357FB4F9489890F80680C94EA0681E0E1
:100E00000E94EA068BE39FE10197F1F70895CF93E3
:100E1000DF93623029F490919C04986090939C0435
:100E20006093A0041092A10490E49093A204809394
:100E3000A304805C8093A40461E0809191040E94EB
:100E4000C703809192048F3F19F061E00E94C703AD
:100E500061E0809193040E94C703CDE8D4E09E0135
:100E60002D58344080919C0484FD0BC084E090E0B8
:100E700021962817390744F461E08E810E94C70348
:100E8000EECF88E090E0F4CF8BE39DE00197F1F79F
:100E900060E0809191040E94950360E0809193044A
:100EA0000E949503809192048F3F19F060E00E94A8
:100EB000950380919C0484FD34C063E08DE894E048
:100EC0000E946A06CBE4D6E4CE010197F1F763E015
:100ED0008DE894E00E946A062197F1F763E08DE8BF
:100EE00094E00E946A0683E592E00197F1F762E0E0
:100EF0008DE894E00E946A0680919C0480620E94C2
:100F0000EA0684E080939D048CE00E94EA060E9439
:100F1000FF0682E080939E0486E0DF91CF910C94DF
:100F2000EA0680620E94EA068BE496E40197F1F7F4
:100F300080919C0480620E94EA0683E592E001971A
:100F4000F1F780919C0480620E94EA06D5CF41E0CF
:100F50000E94970681E090E00895FB010190002037
:100F6000E9F73197AF01461B570BDC01ED91FC917E
:100F70000280F381E02D199463E472E083E593E04D
:100F80000C94AD074F925F926F927F928F929F92D7
:100F9000AF92BF92CF92DF92EF92FF920F931F9387
:100FA000CF93DF93CDB7DEB7A1970FB6F894DEBF2E
:100FB0000FBECDBF8C016B01770FEE08FF08F7FE67
:100FC00049C0DC01ED91FC910190F081E02D6DE2D2
:100FD00019955C0122273327A9012C193D094E09D7
:100FE0005F0919A2FE01B1967F019AE0492E512CAA
:100FF000612C712CCA01B901A30192010E9405154F
:10100000605DD7016E937D012115310541055105C4
:1010100089F790E080E0109721F0BD01C8010E949F
:10102000AD078A0D9B1DA1960FB6F894DEBF0FBECB
:10103000CDBFDF91CF911F910F91FF90EF90DF9087
:10104000CF90BF90AF909F908F907F906F905F9068
:101050004F900895A701960119A2FE01B1967F0154
:101060008AE0882E912CA12CB12CCA01B901A501CE
:1010700094010E940515605DD7016E937D012115D5
:1010800031054105510589F790E080E0109759F24C
:10109000BD01C8010E94AD07C6CF0C94AD07809179
:1010A0004B0390914C03019690934C0380934B0318
:1010B00061E084E10E94F00666E472E08DE894E06D
:1010C0000E944D0860914B0370914C038DE894E0B1
:1010D0000C94C2072091FA033091FB03232B39F4BF
:1010E00021E0FC018081882361F020E00AC0BC017E
:1010F0008091F6039091F7030E94521721E0892B0B
:10110000A1F7822F08950F931F93CF93DF93EC01E4
:1011100088819981009759F02A813B8126173707EA
:1011200030F081E0DF91CF911F910F9108958B01F5
:101130006F5F7F4F0E946816009759F099838883EC
:101140001B830A832C813D81232B59F7FC011082DC
:10115000E8CF80E0E7CFCF93DF93EC0119821882CC
:101160001B821A821D821C8270E060E00E9483084C
:101170002881398181110FC02115310519F0C9016C
:101180000E94DF15198218821D821C821B821A821E
:10119000DF91CF9108951D821C8265E472E0C90140
:1011A000DF91CF910C945B170F931F93CF93DF9335
:1011B0008C01EC0109900020E9F72197C81BD90B9D
:1011C000BE0186EF93E00E9483082091F6033091E0
:1011D000F703811117C02115310519F0C9010E94CB
:1011E000DF151092F7031092F6031092FB03109292
:1011F000FA031092F9031092F803DF91CF911F9137
:101200000F910895D093FB03C093FA03B801C9016D
:10121000DF91CF911F910F910C945B171F920F924A
:101220000FB60F9211240BB60F922F933F934F934B
:101230005F936F937F938F939F93AF93BF93EF933E
:10124000FF9383E593E00E944202FF91EF91BF91EB
:10125000AF919F918F917F916F915F914F913F914E
:101260002F910F900BBE0F900FBE0F901F901895EF
:101270001F920F920FB60F9211240BB60F922F935D
:101280008F939F93EF93FF93E0916303F091640337
:101290008081E0916903F0916A0382FD1DC0908115
:1012A00080916C038F5F8F7320916D03821741F0E3
:1012B000E0916C03F0E0ED5AFC4F958F80936C0346
:1012C000FF91EF919F918F912F910F900BBE0F90F7
:1012D0000FBE0F901F9018958081F2CF1F920F9232
:1012E0000FB60F9211242F933F938F939F93AF9339
:1012F000BF9380912B0390912C03A0912D03B0916B
:101300002E0330912A0323E0230F2D3758F5019641
:10131000A11DB11D20932A0380932B0390932C03CE
:10132000A0932D03B0932E0380912F03909130034F
:10133000A0913103B09132030196A11DB11D80939C
:101340002F0390933003A0933103B0933203BF91E6
:10135000AF919F918F913F912F910F900FBE0F9062
:101360001F90189526E8230F0296A11DB11DD2CF1C
:101370001F920F920FB60F9211240BB60F922F935C
:101380003F934F935F936F937F938F939F93AF930D
:10139000BF93EF93FF93E0914903F0914A031995AE
:1013A000FF91EF91BF91AF919F918F917F916F913D
:1013B0005F914F913F912F910F900BBE0F900FBEF9
:1013C0000F901F901895CF92DF92EF92FF920F939C
:1013D0001F93E82FF92F05C0015011092109310988
:1013E00061F1908196239417B9F305C0015011095A
:1013F0002109310911F1908196239413F7CFC12C63
:10140000D12CE12CF12C0AC08FEFC81AD80AE80AB7
:10141000F80A0C151D052E053F0579F080818623FD
:10142000841791F36C2D7D2D8E2D9F2D1F910F9183
:10143000FF90EF90DF90CF90089560E070E080E043
:1014400090E01F910F91FF90EF90DF90CF90089563
:10145000109256031092550388EE93E0A0E0B0E09E
:101460008093570390935803A0935903B0935A0362
:101470008FE192E0909354038093530385EC90E0C6
:101480009093600380935F0384EC90E090936203F9
:101490008093610380EC90E09093640380936303F6
:1014A00081EC90E0909366038093650382EC90E07A
:1014B000909368038093670386EC90E090936A03AF
:1014C0008093690310926C0310926D0310926E0367
:1014D00010926F031092900410928F048BE392E0AD
:1014E00090938E0480938D0484E08093910483E034
:1014F0008093920482E08093930486E18093940425
:1015000087E18093950488E18093960489E1809334
:1015100097048AE1809398048BE1809399048CE18D
:1015200080939A048DE180939B0480E180939C04D6
:1015300061E00E9407071092200410922404109288
:1015400023041092250481E392E090931F0480937A
:101550001E04EAE3F4E010821482138215823696A8
:1015600084E0E637F807B9F785E092E090938104CC
:101570008093800482E092E09093830480938204BD
:1015800084E08093840483E08093850489E092E082
:1015900090937F0480937E048AE090E09093870488
:1015A0008093860484EF91E090938904809388046B
:1015B00010928C0410928B0410927A0410927B0487
:1015C00010927C0410927D0410928A0460E08AE2FA
:1015D0000E94C703E0EDF2E0E491E0931004EAE832
:1015E000F2E0E491F0E0EE0FFF1FEA5BFD4F859122
:1015F0009491909312048093110410921B04109202
:101600001D0410921C0410921A04109219041092D6
:1016100018041092170410921604109215041092D8
:1016200014041092130480E194E0909303048093D7
:10163000020410920004109201041092FC0389E04D
:101640008093FD0381E08093FE038093FF0310925B
:101650000F0410920E0486EF93E00E94AB0880EF17
:1016600093E00C94AB08CF93DF9300D000D01F928F
:101670001F92CDB7DEB7789484B5826084BD84B5FF
:10168000816084BD85B5826085BD85B5816085BD7D
:1016900080916E00816080936E0010928100809135
:1016A00081008260809381008091810081608093BD
:1016B0008100809180008160809380008091B100E2
:1016C00084608093B1008091B00081608093B0000D
:1016D000809191008260809391008091910081605F
:1016E0008093910080919000816080939000809120
:1016F000A10082608093A1008091A100816080930D
:10170000A1008091A00081608093A00080912101C0
:101710008260809321018091210181608093210169
:101720008091200181608093200180917A00846003
:1017300080937A0080917A00826080937A00809111
:101740007A00816080937A0080917A00806880932B
:101750007A001092C100E0916303F091640382E08B
:101760008083E0915F03F09160031082E091610358
:10177000F09162038FEC808310926B03E09167031A
:10178000F091680386E08083E0916503F091660341
:10179000808180618083E0916503F09166038081A0
:1017A00088608083E0916503F091660380818068A2
:1017B0008083E0916503F091660380818F7D808353
:1017C000109248031092470310923403109233038F
:1017D00010924E0310924D03109244031092430353
:1017E00010923C0310923B0310923A03109239037B
:1017F00010923D0310923E038DE492E00E94D408C3
:1018000062E088E20E9407070E94FF0660E080E035
:101810000E94F00665E572E08DE894E00E944D08B4
:1018200061E080E00E94F0064091FA035091FB03D2
:101830006091F6037091F7038DE894E00E94CE0169
:1018400064E670E080E090E00E94430461E08DE097
:101850000E94C70360E08CE00E94C70360E08EE155
:101860000E94C70360E08FE10E94C70360E080E24E
:101870000E94C70360E081E20E94C70360E082E249
:101880000E94C703E0910204F091030413861586B9
:10189000148612861186108617821682158214828B
:1018A00013821092000410920104BB24B394AA2462
:1018B000A3940091020410910304D8011D968C9109
:1018C000882309F4C8C0F80113861586148661E0E0
:1018D00083E30E94C70360E086E30E94C70360E0E1
:1018E00087E30E94C70380E180938100109280000B
:1018F00082E19AE7909387008093860084E1809349
:101900008100412C512C3201439456E0952E0E94C7
:10191000FF0660E080E00E94F00665E572E08DE879
:1019200094E00E944D0861E080E00E94F006409142
:10193000FA035091FB036091F6037091F7038DE871
:1019400094E00E94CE0162E370E080E090E00E94AB
:10195000430460E08DE00E94950383E090E00197EE
:10196000F1F761E08DE00E94950383E290E001973A
:10197000F1F760E08DE00E949503E2EBF2E0649104
:10198000ECE6F2E08491E82FF0E0EE0FFF1FEA5B57
:10199000FD4F8591949100E412E42FE030E0462F52
:1019A0000E94E309611571058105910529F06F5FBA
:1019B0007F4F8F4F9F4F9F700E94551326E933E44E
:1019C0004BE05DE30E94901320E030E040E05FE3F5
:1019D0000E9490130E94BB148B017093420360938A
:1019E00041036AE070E080E090E00E9443048DE4EF
:1019F00092E00E946A08882309F40EC18EE10E94D9
:101A00006903892BD9F4083E1340C4F48CE592E0B5
:101A10000E94D408109234031092330310924E03A4
:101A200010924D0310923503109236031092370333
:101A30001092380310923D0310923E030E947504E9
:101A400060934F037093500380935103909352031C
:101A50000E94D1025CCFC8010E94930581110AC087
:101A6000D8011B961C921B971D961C921D971C96C5
:101A70001C922DCF60EFC8010E944705EE24E3942D
:101A8000C12C912CFF24F394C8010E94F404D82E99
:101A9000C8010E94F404B1E0DB1275C0813009F086
:101AA00094C0E0E4EF1508F00ECFD8011B969C928D
:101AB0001B97911002C01D96BC92F8018381882368
:101AC00009F401CFD8011396FE013196055F1F4F2F
:101AD0007F018D918193A017B107D9F767E0C70106
:101AE0000E94DD0498858913E4CE8091FC03811166
:101AF00025C080910204909103040E949305B701D0
:101B000080910204909103040E94760564EB809119
:101B10000204909103040E94470580910204909171
:101B200003040E94F404182F80910204909103048E
:101B30000E949305111102C0A092FC031091FD03B5
:101B40008981803109F49AC5C7010E94CB058117AC
:101B500008F052C08091FD038093FD038091000442
:101B60008F5F809300048981883239F008F04DC07E
:101B7000803119F0823209F09CCE809101048F5F90
:101B80008093010496CEEC2DF0E0D81214C0D80159
:101B90001B968C911B97F816B0F4AE0FBF1F1396CF
:101BA0008C918E2191F4D12CB8E0BF1518F0D8019A
:101BB0001C96FC929F2CE00FF11F83819E2D909527
:101BC000892383830AC08F11EECFF801EC0DF11D3C
:101BD00083818E298383DD24D3946D2DC8010E94D7
:101BE0001805F394EE0C19F4C394EE24E394B7E0D3
:101BF000BC1508F049CF55CF8981803111F48CE0B4
:101C0000ABCFC7010E94CB05A7CF8B3309F4B5CF6B
:101C1000823409F04ECEB1CF8CE592E00E946A0882
:101C2000882309F4D6C10E94FF0660E082E10E9489
:101C3000F0066BE672E08DE894E00E944D0862E3E6
:101C400070E080E090E00E9443040E94750460937D
:101C500035037093360380933703909338030091D4
:101C60004F03109150032091510330915203601B98
:101C7000710B820B930B68397A438105910520F033
:101C80008DE492E00E94D40881E080938A040E944F
:101C9000750400917A0410917B0420917C043091AA
:101CA0007D04AB01BC01401B510B620B730B809197
:101CB000860490918704B0E0A0E084179507A607FA
:101CC000B70708F00AC110E080918404181760F487
:101CD000E0918004F0918104E10FF11D62E08081C8
:101CE0000E94C7031F5FF0CF812C80918504881666
:101CF00008F061C0E82CF12CE0918204F09183049B
:101D0000EE0DFF1D61E080810E94C703E091820417
:101D1000F0918304EE0DFF1D60E080810E94950329
:101D2000D301C201082C04C0880F991FAA1FBB1F32
:101D30000A94D2F75C016C01C094D094312C80914C
:101D40008404381608F5032D10E0E0918004F0912A
:101D50008104E00FF11F80810E9469030C5F1F4F17
:101D6000000F111FF801E25EFB4F892B41F48081C7
:101D700091818A299B29918380833394E0CF80814C
:101D800091818C219D21F7CFE0918204F091830411
:101D9000EE0DFF1D61E080810E9495038091820419
:101DA00090918304E80EF91E60E0D7018C910E94A7
:101DB000C70383949ACF9EE1E92E94E0F92E870120
:101DC000F801878D90A1892B31F4148E8FEF9FEF4E
:101DD000968F858F11A20A5F1F4F94E00A3519076D
:101DE00079F7B12C80918404B81608F052C0A12C68
:101DF000CB2CD12CCC0CDD1CD601AA5DBB4F6D01C8
:101E000020918504A21608F042C0F601608171811C
:101E10000A2C02C0769567950A94E2F7B29E90016B
:101E200011242A0D311DEEE1F4E080E0458D568D40
:101E30002417350709F420C48F5F36968A30B1F72E
:101E400060FF23C0EEE1F4E090E080E0448D4111BA
:101E500017C0E0917E04F0917F04E20FF31F4081F0
:101E6000989EF001999EF00D1124E25EFB4F448F85
:101E7000368F258F10A2178E61E00E94810405C065
:101E8000019636968A30910509F7A394B9CFB39499
:101E9000A9CFD12CD70191968C918111D82EB6E083
:101EA000EB0EF11C0E151F05A9F70E947504609337
:101EB0007A0470937B0480937C0490937D04DD20EE
:101EC00061F080913F04882341F080913D0490911E
:101ED0003E04F0903A04019719F010928A04F12C14
:101EE0006AE070E080E090E00E944304FF20F1F19E
:101EF000009133031091340302301105BCF50E94A8
:101F0000750460934F037093500380935103909333
:101F100052032F2D0F2C000C330B205331098091CD
:101F20004D0390914E030130110509F045C0820F19
:101F3000931F90934E0380934D0383E792E00E949A
:101F4000D4080F5F1F4F109334030093330361E0F5
:101F500082E10E94F0066F2D8DE894E00E94A707B1
:101F600068EE73E080E090E00E94430483E792E033
:101F70000E946A08882309F46BCD0E94FF0660E086
:101F800084E10E94F0066FE772E08DE894E00E9421
:101F90004D0861E084E10E94F00660914D0370916C
:101FA0004E038DE894E00E94C2076CED75E080E07E
:101FB00090E00E94430442CD6AE0629FA001639FCB
:101FC000500D1124840F951F90934E0380934D0361
:101FD000B8CF83E792E00E946A08882309F476C0AC
:101FE0000E94750460933503709336038093370322
:101FF000909338030E94FF0680E20E946903892BB8
:10200000B9F481E080933E0360E082E10E94F00633
:1020100062E972E08DE894E00E94AD0768EE73E03B
:1020200080E090E00E94430487E992E00E94D40897
:102030008FE10E946903892BB9F481E080933D030D
:1020400060E082E10E94F00667EA72E08DE894E0C9
:102050000E94AD0768EE73E080E090E00E944304C8
:1020600087E992E00E94D40880913503909136036D
:10207000A0913703B091380340914F035091500322
:102080006091510370915203841B950BA60BB70B03
:1020900088399A43A105B10520F08DE492E00E94B1
:1020A000D40887E992E00E946A08882309F4D0CC1A
:1020B00010924C0310924B038FE498E090934A03E4
:1020C0008093490381E080936F00C2CC87E992E05E
:1020D0000E946A08882309F4E3C10E94FF0660E0B9
:1020E00080E00E94F00660914703709148038DE8FC
:1020F00094E00E94C2076EEA72E08DE894E00E94CC
:102100004D0861E080E00E94F00666EB72E08DE829
:1021100094E00E944D0860914503709146038DE85C
:1021200094E00E94C20760E084E10E94F00664EC43
:1021300072E08DE894E00E944D0860914303709135
:1021400044038DE894E00E94C2070091430310917C
:10215000440361E083E30E94C7030115110509F000
:10216000BCC060E083E30E94950368EE73E080E00A
:1021700090E00E9443048091410390914203883E85
:1021800093400CF46BC18FEC92E00E94D40888E37A
:102190000E94070465E070E00E94F1148B017093C7
:1021A00046036093450380913F0390914003861757
:1021B00097070CF068C17093400360933F0387E377
:1021C0000E940704BC01990F880B990B0E945513BC
:1021D00020E030E040E85AE30E94901320E030E035
:1021E0004AEF53E40E9490130E94BB14709348037B
:1021F0006093470362E370E080E090E00E94430454
:1022000080913E03882351F160914D0370914E03FC
:10221000072E000C880B990B0E94551320E030E02C
:1022200040E85EE30E9490136B017C0185E0809F93
:10223000B001819F700D1124072E000C880B990BA3
:102240000E9455139B01AC01C701B6010E944F14B7
:102250000E94BB14709344036093430380913D0339
:10226000882309F4F5CB86E30E9407048C01609172
:102270004D0370914E03072E000C880B990B0E94A2
:10228000551320E030E040E85EE30E9490136B01BC
:102290007C01B801110F880B990B0E9455139B010B
:1022A000AC01C701B6010E944F140E94BB14709389
:1022B00044036093430320913B0330913C03261772
:1022C000370724F470933C0360933B0365E070E0B0
:1022D00080E090E00E944304BBCB0F3F110511F456
:1022E00061E040CFE3E3F2E0E491E150E23108F055
:1022F000B0C0F0E08827E058FE4E8F4F0C942715B1
:10230000921197119C11A611B0112912BA11C21184
:10231000CA11D411DE11E811F711011229120B12A2
:1023200015121F1284B5806884BD07BD1ECF84B509
:10233000806284BD08BD19CF809180008068809341
:10234000800010938900009388000FCF8091800057
:1023500080628093800010938B0000938A0005CFE9
:102360008091800088608093800010938D0000939E
:102370008C00FBCE8091B00080688093B000009309
:10238000B300F3CE8091B00080628093B0000093E0
:10239000B400EBCE80919000806880939000109301
:1023A000990000939800E1CE809190008062809324
:1023B000900010939B0000939A00D7CE80919000DC
:1023C00088608093900010939D0000939C00CDCE78
:1023D0008091A00080688093A0008091A0008F7BF6
:1023E0008093A0001093A9000093A800BECE809116
:1023F000A00080628093A0001093AB000093AA001D
:10240000B4CE8091A00088608093A0001093AD00AE
:102410000093AC00AACE80912001806880932001B7
:102420001093290100932801A0CE809120018062A1
:102430008093200110932B0100932A0196CE809166
:10244000200188608093200110932D0100932C01BE
:102450008CCE003811050CF043CF83CE82E20E946F
:102460006903892B09F48FCE81E20E946903892BCD
:1024700009F08DCE809143039091440381309140C7
:102480000CF481CE84CE80910002909101026817F5
:1024900079070CF094CE70930102609300028FCE06
:1024A0008FEC92E00E946A088823B9F010926F00C6
:1024B000109244031092430361E083E30E94C70338
:1024C00060E083E30E94950384ED92E00E94D408CB
:1024D00068EE73E080E090E06CCD84ED92E00E94C5
:1024E0006A08882309F4B4CA80913B0390913C03A5
:1024F000019764E670E00E94F114072E000C880B2F
:10250000990B0E9455132DE232EB4DE95CE30E94DA
:1025100090136B017C0160914D0370914E03072E67
:10252000000C880B990B0E9455139B01AC01C7014D
:10253000B6010E9490136B017C0180914B03909136
:102540004C036CE370E00E94F114072E000C880B22
:10255000990B0E9455139B01AC01C701B6010E9463
:1025600090130E94BB1470933A036093390383E580
:1025700093E00E942C0297FD62C06DED72E083E54E
:1025800093E00E944D080E94BC076FEE72E083E565
:1025900093E00E944D0860913B0370913C0383E5FA
:1025A00093E00E94C2070E94BC0766E472E083E5E4
:1025B00093E00E944D0860914B0370914C0383E5BA
:1025C00093E00E94C2070E94BC076EEF72E083E5B1
:1025D00093E00E944D0860913F037091400383E5B2
:1025E00093E00E94C20760E173E083E593E00E94FC
:1025F0004D08609100027091010283E593E00E9412
:10260000C2070E94BC0764E173E083E593E00E9487
:102610004D086091390370913A0383E593E00E947D
:10262000C2070E94BC076BE173E083E593E00E9460
:102630004D0868EE73E080E090E00E9443040E9441
:10264000750460933503709336038093370390933A
:10265000380300914F0310915003209151033091A2
:102660005203601771078207930709F4F1C98DE4DB
:1026700092E00E94D408ECC96170FFCB1D3008F0D5
:1026800069CABDCA8091F0039091F103009711F0DF
:102690000E94DF158091F6039091F703009711F0E7
:1026A0000C94DF150895E89409C097FB3EF49095CB
:1026B0008095709561957F4F8F4F9F4F9923A9F01B
:1026C000F92F96E9BB279395F695879577956795AA
:1026D000B795F111F8CFFAF4BB0F11F460FF1BC0EE
:1026E0006F5F7F4F8F4F9F4F16C0882311F096E981
:1026F00011C0772321F09EE8872F762F05C066232F
:1027000071F096E8862F70E060E02AF09A95660FE7
:10271000771F881FDAF7880F9695879597F90895A0
:102720000E94A3130C9414140E94061438F00E9403
:102730000D1420F0952311F00C94FD130C94031448
:1027400011240C9448140E94251470F3959FC1F332
:10275000950F50E0551F629FF001729FBB27F00D4F
:10276000B11D639FAA27F00DB11DAA1F649F6627A4
:10277000B00DA11D661F829F2227B00DA11D621FF3
:10278000739FB00DA11D621F839FA00D611D221FAD
:10279000749F3327A00D611D231F849F600D211D91
:1027A000822F762F6A2F11249F5750409AF0F1F014
:1027B00088234AF0EE0FFF1FBB1F661F771F881F7D
:1027C00091505040A9F79E3F510580F00C94FD13A5
:1027D0000C9448145F3FE4F3983ED4F386957795C4
:1027E0006795B795F795E7959F5FC1F7FE2B880F23
:1027F000911D9695879597F9089597F99F6780E8B9
:1028000070E060E008959FEF80EC089500240A9442
:102810001616170618060906089500240A941216BB
:102820001306140605060895092E0394000C11F4EE
:10283000882352F0BB0F40F4BF2B11F460FF04C09B
:102840006F5F7F4F8F4F9F4F089557FD9058440FF4
:10285000551F59F05F3F71F04795880F97FB991FFF
:1028600061F09F3F79F087950895121613061406BC
:10287000551FF2CF4695F1DF08C016161706180649
:10288000991FF1CF86957105610508940895E89424
:10289000BB2766277727CB0197F908955058BB27A8
:1028A000AA270E9466140C9414140E94061438F08F
:1028B0000E940D1420F039F49F3F19F426F40C9473
:1028C00003140EF4E095E7FB0C94FD13E92F0E942E
:1028D000251458F3BA17620773078407950720F089
:1028E00079F4A6F50C9447140EF4E0950B2EBA2F4C
:1028F000A02D0B01B90190010C01CA01A001112406
:10290000FF27591B99F0593F50F4503E68F11A16B1
:10291000F040A22F232F342F4427585FF3CF469542
:1029200037952795A795F0405395C9F77EF41F1664
:10293000BA0B620B730B840BBAF09150A1F0FF0F2E
:10294000BB1F661F771F881FC2F70EC0BA0F621F1A
:10295000731F841F48F4879577956795B795F7950A
:102960009E3F08F0B0CF9395880F08F09927EE0F9F
:102970009795879508950E94C2146894B1110C949C
:10298000481408950E942D1488F09F5798F0B92F8D
:102990009927B751B0F0E1F0660F771F881F991F94
:1029A0001AF0BA95C9F714C0B13091F00E944714DB
:1029B000B1E008950C944714672F782F8827B85FEB
:1029C00039F0B93FCCF3869577956795B395D9F7EC
:1029D0003EF490958095709561957F4F8F4F9F4FF6
:1029E000089597FB072E16F4009407D077FD09D0C1
:1029F0000E942F1507FC05D03EF4909581959F4FBE
:102A00000895709561957F4F0895A1E21A2EAA1B33
:102A1000BB1BFD010DC0AA1FBB1FEE1FFF1FA2178E
:102A2000B307E407F50720F0A21BB30BE40BF50B8B
:102A3000661F771F881F991F1A9469F76095709514
:102A4000809590959B01AC01BD01CF010895EE0FDB
:102A5000FF1F881F8BBF0790F691E02D1994AA1BCA
:102A6000BB1B51E107C0AA1FBB1FA617B70710F079
:102A7000A61BB70B881F991F5A95A9F780959095AB
:102A8000BC01CD0108950F931F93CF93DF93823044
:102A9000910510F482E090E0E091A704F091A80481
:102AA00030E020E0B0E0A0E0309799F42115310546
:102AB00009F44AC0281B390B24303105D8F58A8126
:102AC0009B816115710589F1FB0193838283FE016E
:102AD00011C0408151810281138148175907E0F0EC
:102AE0004817590799F4109761F012960C931297B2
:102AF00013961C933296CF01DF91CF911F910F91C6
:102B000008950093A7041093A804F4CF211531056C
:102B100051F04217530738F0A901DB019A01BD01BA
:102B2000DF01F801C1CFEF01F9CF9093A8048093A2
:102B3000A704CDCFFE01E20FF31F819391932250A2
:102B4000310939832883D7CF2091A5043091A60479
:102B5000232B41F420911702309118023093A604E0
:102B60002093A504209115023091160221153105FC
:102B700041F42DB73EB74091190250911A02241B1F
:102B8000350BE091A504F091A604E217F307A0F439
:102B90002E1B3F0B2817390778F0AC014E5F5F4FB3
:102BA0002417350748F04E0F5F1F5093A60440933B
:102BB000A504819391939FCFF0E0E0E09CCFCF9369
:102BC000DF930097E9F0FC01329713821282A09103
:102BD000A704B091A804ED0130E020E01097A1F423
:102BE00020813181820F931F2091A5043091A6048A
:102BF0002817390709F061C0F093A604E093A504F3
:102C0000DF91CF910895EA01CE17DF07E8F54A81F9
:102C10005B819E0141155105B1F7E901FB83EA8310
:102C200049915991C40FD51FEC17FD0761F48081BC
:102C300091810296840F951FE9019983888382818F
:102C400093819B838A83F0E0E0E012968D919C91C2
:102C500013970097B9F52D913C911197CD010296EC
:102C6000820F931F2091A5043091A60428173907DD
:102C700039F6309751F51092A8041092A704B0933A
:102C8000A604A093A504BCCFD383C2834081518105
:102C9000840F951FC817D90761F44E5F5F4F888175
:102CA0009981480F591F518340838A819B81938367
:102CB00082832115310509F0B0CFF093A804E09389
:102CC000A7049ECFFD01DC01C0CF13821282D7CFB3
:102CD0004F925F926F927F928F929F92AF92BF922C
:102CE000CF92DF92EF92FF920F931F93CF93DF93D8
:102CF0008C01009799F4CB01DF91CF911F910F9137
:102D0000FF90EF90DF90CF90BF90AF909F908F900B
:102D10007F906F905F904F900C944315FC01E60FED
:102D2000F71F9C0122503109E217F30708F4AEC0E7
:102D3000D901CD91DC911197C617D70720F1C53085
:102D4000D10578F0CE0104978617970750F0C61B7F
:102D5000D70B2297C193D1936D937C93CF010E949F
:102D6000DF15C801DF91CF911F910F91FF90EF9078
:102D7000DF90CF90BF90AF909F908F907F906F909B
:102D80005F904F9008955B01AC1ABD0A4C018C0E08
:102D90009D1EA091A704B091A804512C412CF12CA8
:102DA000E12C109731F58091A5049091A604881527
:102DB000990509F05CC04616570608F058C0809186
:102DC000150290911602009741F48DB79EB740917D
:102DD000190250911A02841B950BE817F90708F0A5
:102DE00055C0F093A604E093A504F90171836083B4
:102DF000B8CF8D919C91119712966C901297139663
:102E00007C901397A815B90559F56C0142E0C40EE2
:102E1000D11CCA14DB0420F1AC014A195B09DA01A8
:102E20001296159780F06282738251834083D90194
:102E30006D937C93E114F10471F0D7011396FC9328
:102E4000EE9312978ECF22968C0F9D1FF9019183DE
:102E50008083F301EFCFF093A804E093A70481CF20
:102E60004816590608F42C017D01D3019ACFCB01F5
:102E70000E9443157C01009749F0AE01B8010E9401
:102E80004917C8010E94DF1587016BCF10E000E0F1
:102E900068CFFB01DC0102C001900D92415050400F
:102EA000D8F70895FB01DC018D9101908019011084
:102EB000D9F3990B0895FB01DC0101900D920020DC
:102EC000E1F7089511E0C7E7D1E000E006C0802FE8
:102ED000FE010E9427152196011DC837D10780E009
:102EE0000807A9F7F894FFCFCD002524232627282B
:102EF000293132333435363738392A30230000A9A6
:102F0000048000000000006402CE01FB01B1022C2D
:102F1000020A021E02000000000304C30392030021
:102F2000000000A707CE01510650060D0A005469A3
:102F30006D653A20005354414E4442590053746128
:102F400074653A004944454E544946494341544901
:102F50004F4E005765696768743A0053454C4543C6
:102F600054204D4F44450057656967687420696E69
:102F700074726F64756365643A004155544F005430
:102F80005241494E494E4720534541534F4E004D03
:102F9000414E55414C0020477261646F730050757B
:102FA0006C73652048656172743A200056656C6FD9
:102FB000636974793A200053544F5000444F574E80
:102FC0004C4F414400526563656976696E672064C1
:102FD0006174612E2E2E0056656C6F6369747920C2
:102FE0004D61783A20004842436F756E74204D6100
:102FF000782F4D696E3A2000202F20006B63616CA2
:103000003A200044415441205245434549564544E5
:023010000000BE
:10E000000D9489F10D94B2F10D94B2F10D94B2F129
:10E010000D94B2F10D94B2F10D94B2F10D94B2F1F0
:10E020000D94B2F10D94B2F10D94B2F10D94B2F1E0
:10E030000D94B2F10D94B2F10D94B2F10D94B2F1D0
:10E040000D94B2F10D94B2F10D94B2F10D94B2F1C0
:10E050000D94B2F10D94B2F10D94B2F10D94B2F1B0
:10E060000D94B2F10D94B2F10D94B2F10D94B2F1A0
:10E070000D94B2F10D94B2F10D94B2F10D94B2F190
:10E080000D94B2F10D94B2F10D94B2F10D94B2F180
:10E090000D94B2F10D94B2F10D94B2F10D94B2F170
:10E0A0000D94B2F10D94B2F10D94B2F10D94B2F160
:10E0B0000D94B2F10D94B2F10D94B2F10D94B2F150
:10E0C0000D94B2F10D94B2F10D94B2F10D94B2F140
:10E0D0000D94B2F10D94B2F10D94B2F10D94B2F130
:10E0E0000D94B2F141546D656761323536300041AF
:10E0F000726475696E6F206578706C6F72657220DE
:10E1000073746B3530305632206279204D4C530099
:10E11000426F6F746C6F616465723E004875683F52
:10E1200000436F6D70696C6564206F6E203D200048
:10E130004350552054797065202020203D20005FF9
:10E140005F4156525F415243485F5F3D2000415658
:10E1500052204C696243205665723D20004743437C
:10E160002056657273696F6E203D20004350552024
:10E1700049442020202020203D20004C6F7720663D
:10E18000757365202020203D20004869676820665F
:10E190007573652020203D200045787420667573D6
:10E1A00065202020203D20004C6F636B2066757336
:10E1B000652020203D20004D617220203720323024
:10E1C000313300312E362E3800342E332E350056A2
:10E1D00023202020414444522020206F7020636F70
:10E1E00064652020202020696E73747275637469E1
:10E1F0006F6E2061646472202020496E74657272B3
:10E20000757074006E6F20766563746F7200726A49
:10E210006D702020006A6D70200057686174207056
:10E220006F72743A00506F7274206E6F7420737541
:10E2300070706F72746564004D7573742062652030
:10E2400061206C6574746572002000577269747483
:10E25000696E672045450052656164696E672045B7
:10E26000450045452065727220636E743D00504F35
:10E27000525400303D5A65726F2061646472003FF1
:10E280003D43505520737461747300403D454550C3
:10E29000524F4D207465737400423D426C696E6B41
:10E2A000204C454400453D44756D70204545505215
:10E2B0004F4D00463D44756D7020464C415348001B
:10E2C000483D48656C70004C3D4C69737420492F83
:10E2D0004F20506F72747300513D51756974005234
:10E2E0003D44756D702052414D00563D73686F7707
:10E2F00020696E7465727275707420566563746FF0
:10E30000727300593D506F727420626C696E6B00BD
:10E310002A0011241FBECFEFD1E2DEBFCDBF01E046
:10E320000CBF12E0A0E0B2E0EEE1FDEF03E00BBFB6
:10E3300002C007900D92A030B107D9F712E0A0E01B
:10E34000B2E001C01D92AE30B107E1F70F9460F367
:10E350000D948DFE01E20EBF0FEF0DBF11241FBE05
:10E360000D9460F30D9400F020E030E040ED57E0B4
:10E3700005C0FA013197F1F72F5F3F4F2817390792
:10E38000C0F308959C01260F311DC901A0E0B0E043
:10E390002F5F3F4FABBFFC018791882361F08093D3
:10E3A000C6008091C00086FFFCCF8091C0008064D1
:10E3B0008093C000EACF08958DE08093C6008091DD
:10E3C000C00086FFFCCF8091C00080648093C000B5
:10E3D0008AE08093C6008091C00086FFFCCF8091C8
:10E3E000C00080648093C00008950F94C2F10F9420
:10E3F000DCF10895FC019081992359F09093C600B7
:10E400008091C00086FFFCCF8091C0008064809323
:10E41000C0003196992379F70895282F982F929567
:10E420009F70892F805D8A3308F0895F8093C600D2
:10E430008091C00086FFFCCF8091C00080648093F3
:10E44000C000822F8F70982F905D9A3308F0995FEB
:10E450009093C6008091C00086FFFCCF8091C000E1
:10E4600080648093C00008959C01FB01853691056E
:10E470001CF46330710594F0C90164E670E00F94F8
:10E480002EFE605D7F4F6093C6008091C00086FFC6
:10E49000FCCF8091C00080648093C0002B30310598
:10E4A00014F43297B4F0C90164E670E00F942EFEC4
:10E4B0006AE070E00F942EFE605D7F4F6093C600AF
:10E4C0008091C00086FFFCCF8091C0008064809363
:10E4D000C000C9016AE070E00F942EFEC0968093E0
:10E4E000C6008091C00086FFFCCF8091C000806490
:10E4F0008093C00008951F93182F8EE692EE60E07F
:10E500000F94C2F11093C6008091C00086FFFCCF2B
:10E510008091C00080648093C0000F94DCF11F9153
:10E5200008952F923F924F925F926F927F928F92B7
:10E530009F92AF92BF92CF92DF92EF92FF920F9392
:10E540001F93DF93CF93CDB7DEB762970FB6F894E2
:10E55000DEBF0FBECDBF382E622ECA01DB015C01CB
:10E560006D01772420E2222E2E010894411C511CBB
:10E570008BC081E0A81680E0B80681E0C80680E084
:10E58000D80628F0C601AA27BB270F940DF2BB2797
:10E59000AD2D9C2D8B2D0F940DF28A2D0F940DF225
:10E5A0002092C6008091C00086FFFCCF8091C00001
:10E5B00080648093C0009DE29093C6008091C0006B
:10E5C00086FFFCCF8091C00080648093C0002092C1
:10E5D000C6008091C00086FFFCCF8091C00080649F
:10E5E0008093C00019828601750188249924A1E0D6
:10E5F0003A1651F03A1620F0B2E03B1661F409C029
:10E600000BBFF701779007C0C7010F9477FE782EF4
:10E6100002C0F7017080872D0F940DF22092C60082
:10E620008091C00086FFFCCF8091C0008064809301
:10E63000C000872D8052F401EF70F0708F3520F408
:10E64000E40DF51D708204C0E40DF51D8EE280839B
:10E650000894E11CF11C011D111D0894811C911CE2
:10E6600090E18916910409F0C2CF80E190E0A0E02A
:10E67000B0E0A80EB91ECA1EDB1E198AC2010F9493
:10E68000FAF10F94DCF16A94662009F072CF629679
:10E690000FB6F894DEBF0FBECDBFCF91DF911F91B3
:10E6A0000F91FF90EF90DF90CF90BF90AF909F9031
:10E6B0008F907F906F905F904F903F902F90089534
:10E6C0002F923F924F925F926F927F928F929F9282
:10E6D000AF92BF92CF92DF92EF92FF920F931F9370
:10E6E000DF93CF93CDB7DEB7CD53D1400FB6F894BB
:10E6F000DEBF0FBECDBF01E20EBF0FEF0DBF94B75F
:10E70000F894A89514BE80916000886180936000A1
:10E7100010926000789493FF05C0E0910002F091A0
:10E7200001021995279A2F9A8091C00082608093E8
:10E73000C00080E18093C40088E18093C1000000A4
:10E74000EE24FF24870144E0A42EB12CCC24DD2448
:10E7500024C0C5010197F1F70894E11CF11C011DCB
:10E76000111D21E2E2162EE4F20620E0020720E06D
:10E77000120718F031E0C32ED12CC801B70127ECE5
:10E780003BE140E050E00F9441FE611571058105C9
:10E79000910519F485B1805885B98091C00087FD35
:10E7A00003C0C114D104A9F2A6014F5F5F4FC25E3E
:10E7B000DE4F59834883CE51D140C25EDE4F8881FF
:10E7C0009981CE51D140019711F00D9410FEC05D9A
:10E7D000DE4F19821882C053D14060E0C15DDE4F28
:10E7E0001882CF52D14088249924C35DDE4F19820C
:10E7F0001882CD52D140C05EDE4F188219821A8233
:10E800001B82C052D140CE5CDE4F188219821A8220
:10E810001B82C253D140EE24FF2487010BBFF701B6
:10E8200007911691C45CDE4F19830883CC53D14005
:10E830000D940BFEC25EDE4F28813981CE51D1404E
:10E840002130310509F52091C600C25EDE4F1982E4
:10E850001882CE51D14022C02F5F3F4F4F4F5F4FA4
:10E86000213082E138078AE7480780E0580780F0C6
:10E87000C45CDE4FE881F981CC53D140EF5FFF4F9C
:10E8800019F0EE27FF27099420E030E040E050E047
:10E890008091C00087FFE0CF2091C600C35DDE4FAE
:10E8A00048815981CD52D1404F5F5F4FC35DDE4FEC
:10E8B00059834883CD52D140213209F063C64A3092
:10E8C000510508F05FC60894811C911C53E0851621
:10E8D000910409F059C600E010E018C081E280936D
:10E8E000C6008091C00086FFFCCF8091C00080648C
:10E8F0008093C0002F5F3F4F2931310579F70F9486
:10E90000DCF10F5F1F4F0530110519F020E030E0FA
:10E91000E5CF10920A0210920B0210920C02109294
:10E920000D02109206021092070210920802109235
:10E930000902109202021092030210920402109235
:10E9400005028FEE90EE60E00F94F5F180E191EE1C
:10E9500060E00F94C2F18091C00087FFFCCF9091DE
:10E96000C600903608F09F759032B8F09093C600BC
:10E970008091C00086FFFCCF8091C00080648093AE
:10E98000C000A0E2A093C6008091C00086FFFCCF2B
:10E990008091C00080648093C000983409F4D7C18E
:10E9A0009934B8F4923409F459C1933458F490333B
:10E9B00019F1903308F4E3C59F33A1F1903409F0C5
:10E9C000DEC5BDC0953409F470C1963409F0D7C5D1
:10E9D00098C1923509F42BC2933538F49C3409F46C
:10E9E000F5C1913509F0CBC518C2963509F445C279
:10E9F000993509F0C4C567C483E792EE62E00F94CD
:10EA0000F5F110920602109207021092080210927D
:10EA1000090210920A0210920B0210920C0210923C
:10EA20000D0213C18FE792EE62E00F94F5F18FEEC5
:10EA300090EE60E00F94F5F181E291EE60E00F94CA
:10EA4000C2F187EB91EE60E00F94F5F180E391EE77
:10EA500060E00F94C2F184EE90EE60E00F94F5F167
:10EA60008FE391EE60E00F94C2F186E090E061E008
:10EA700070E00F9434F20F94DCF18DE591EE60E0DC
:10EA80000F94C2F189EC91EE60E00F94F5F18EE401
:10EA900091EE60E00F94C2F183EC91EE60E00F9490
:10EAA000F5F18CE691EE60E00F94C2F18EE10F94E7
:10EAB0000DF288E90F940DF281E00F940DF20F949E
:10EAC000DCF18BE791EE60E00F94C2F119E0E0E039
:10EAD000F0E010935700E4918E2F0F940DF20F94F5
:10EAE000DCF18AE891EE60E00F94C2F1E3E0F0E03F
:10EAF00010935700E4918E2F0F940DF20F94DCF1D8
:10EB000089E991EE60E00F94C2F1E2E0F0E0109349
:10EB10005700E4918E2F0F940DF20F94DCF188EAE8
:10EB200091EE60E00F94C2F1E1E0F0E01093570045
:10EB30001491812F0F940DF20F94DCF107CF8BE825
:10EB400092EE62E00F94F5F18BE492EE60E00F94A8
:10EB5000F5F10F94DCF100E010E019C0C8016F2D51
:10EB60000F947FFEFF2031F489E492EE60E00F9471
:10EB7000C2F10BC0F092C6008091C00086FFFCCFAE
:10EB80008091C00080648093C0000F5F1F4FC80158
:10EB900081519F41A0E0B0E0ABBFFC01F790BAE229
:10EBA000FB1621F0E2E000301E07C1F60F94DCF105
:10EBB0000F94DCF187E592EE60E00F94F5F10F948D
:10EBC000DCF1CC24DD2400E010E01EC0C8010F946D
:10EBD00077FEF82E882331F489E492EE60E00F94FA
:10EBE000C2F10BC08093C6008091C00086FFFCCFAD
:10EBF0008091C00080648093C000FE1419F00894D6
:10EC0000C11CD11C0F5F1F4FC80181519F41A0E063
:10EC1000B0E0ABBFFC01E790FAE2EF1621F022E092
:10EC20000030120799F60F94DCF10F94DCF182E6C4
:10EC300092EE60E00F94C2F1C60161E070E00F94C3
:10EC400034F20F94DCF10F94DCF110920202109276
:10EC50000302109204021092050278CE89E992EE26
:10EC600062E00F94F5F1279A2F9A16C02F9880E052
:10EC700090E0E0EDF7E03197F1F7019684369105E9
:10EC8000C1F72F9A80E090E0E0EDF7E03197F1F7DF
:10EC9000019684369105C1F78091C00087FFE6CFC9
:10ECA0008091C00087FFFCCF64C485EA92EE62E0E9
:10ECB0000F94F5F140910202509103026091040219
:10ECC0007091050281E020E10F9491F2809102029F
:10ECD00090910302A0910402B091050280509F4FD1
:10ECE000AF4FBF4F8093020290930302A0930402A0
:10ECF000B093050280509041A040B04008F426CE69
:10ED0000A4CF83EB92EE62E00F94F5F140910602FE
:10ED100050910702609108027091090280E020E1A1
:10ED20000F9491F28091060290910702A09108023F
:10ED3000B091090280509F4FAF4FBF4F80930602A2
:10ED400090930702A0930802B0930902FFCD80ECD4
:10ED500092EE62E00F94F5F183E792EE60E00F949B
:10ED6000F5F18FE792EE60E00F94F5F18BE892EE0B
:10ED700060E00F94F5F189E992EE60E00F94F5F10F
:10ED800085EA92EE60E00F94F5F183EB92EE60E09D
:10ED90000F94F5F180EC92EE60E00F94F5F187ECC2
:10EDA00092EE60E00F94F5F188ED92EE60E00F9442
:10EDB000F5F18FED92EE60E00F94F5F18AEE92EEB0
:10EDC00060E00F94F5F183E093EEBDCD87EC92EE19
:10EDD00062E00F94F5F181E40F947BF282E40F94EA
:10EDE0007BF283E40F947BF284E40F947BF285E45E
:10EDF0000F947BF286E40F947BF287E40F947BF20E
:10EE000088E40F947BF28AE40F947BF28BE40F94F6
:10EE10007BF28CE40F947BF299CD88ED92EE62E068
:10EE20000F94F5F1772473948824992409C48FED05
:10EE300092EE62E00F94F5F140910A0250910B02BC
:10EE400060910C0270910D0282E020E10F9491F22A
:10EE500080910A0290910B02A0910C02B0910D02D8
:10EE600080509F4FAF4FBF4F80930A0290930B0289
:10EE7000A0930C02B0930D0269CD8AEE92EE62E08F
:10EE80000F94F5F184EE90EE60E00F94F5F18FECC5
:10EE900091EE60E00F94F5F1662477244301CC5D98
:10EEA000DE4F19821882C452D140D401C301B695F5
:10EEB000A79597958795CA5DDE4F88839983AA8326
:10EEC000BB83C652D140CC5DDE4FA881B981C4520C
:10EED000D1401196CC5DDE4FB983A883C452D14096
:10EEE000CD0162E070E00F9434F2B0E2B093C6005E
:10EEF0008091C00086FFFCCF8091C0008064809329
:10EF0000C000EDE2E093C6008091C00086FFFCCF18
:10EF10008091C00080648093C000F0E2F093C6004E
:10EF20008091C00086FFFCCF8091C00080648093F8
:10EF3000C000CA5DDE4FE880F9800A811B81C6529D
:10EF4000D140BB27A12F902F8F2D0F940DF2CA5DBA
:10EF5000DE4F8881C652D1400F940DF2B0E2FB2EF5
:10EF6000F092C6008091C00086FFFCCF8091C00067
:10EF700080648093C0000DE30093C6008091C000C0
:10EF800086FFFCCF8091C00080648093C00010E2B7
:10EF90001093C6008091C00086FFFCCF8091C00016
:10EFA00080648093C0008BBEF3012791C65DDE4F65
:10EFB0002883CA52D140A22EBB24CC24DD2408943D
:10EFC000611C711C811C911C8BBEF3018791282E42
:10EFD0003324442455240894611C711C811C911C09
:10EFE0008BBEF3013791C55DDE4F3883CB52D140E4
:10EFF0000894611C711C811C911C8BBEF30147910C
:10F00000C45DDE4F4883CC52D140ADEFEA2EAFEF66
:10F01000FA2EAFEF0A2FAFEF1A2F6E0C7F1C801E57
:10F02000911E142D032DF22CEE24EA0CFB1C0C1D5A
:10F030001D1D0F940DF220E22093C6008091C000A8
:10F0400086FFFCCF8091C00080648093C000C65DC5
:10F05000DE4F8881CA52D1400F940DF230E23093D6
:10F06000C6008091C00086FFFCCF8091C000806404
:10F070008093C000C45DDE4F8881CC52D1400F9494
:10F080000DF240E24093C6008091C00086FFFCCFA5
:10F090008091C00080648093C000C55DDE4F888190
:10F0A000CB52D1400F940DF250E25093C6008091A4
:10F0B000C00086FFFCCF8091C00080648093C000B8
:10F0C0008FEFE8168FEFF80680E0080780E018075A
:10F0D00031F484E092EE60E00F94C2F1DFC0D80119
:10F0E000C7018070907CA070B0708050904CA040A0
:10F0F000B040D1F52FEF3FE340E050E0E222F322B1
:10F1000004231523CA5DDE4FA880B980CA80DB8046
:10F11000C652D140AE0CBF1CC01ED11EAA0CBB1CD7
:10F12000CC1CDD1C8EE092EE60E00F94C2F1BB2798
:10F13000A12F902F8F2D0F940DF28E2D0F940DF285
:10F1400030E23093C6008091C00086FFFCCF8091F2
:10F15000C00080648093C0004EE34093C60080915D
:10F16000C00086FFFCCF87C08EE09EEFA0E0B0E03D
:10F17000E822F9220A231B239CE0E91694E9F90608
:10F1800090E0090790E0190709F088C0C45DDE4FE0
:10F19000A881CC52D140EA2EFF2400E010E0102FCD
:10F1A0000F2DFE2CEE24C55DDE4FB881CB52D14031
:10F1B000EB0EF11C011D111DD601C501817090706F
:10F1C000A070B070DC0199278827E80EF91E0A1F8D
:10F1D0001B1F20EF30E040E050E0A222B322C42207
:10F1E000D52241E1AA0CBB1CCC1CDD1C4A95D1F7F1
:10F1F000EA0CFB1C0C1D1D1D81E090E0A0E0B0E0BE
:10F20000282239224A225B2235E1220C331C441C7D
:10F21000551C3A95D1F7E20CF31C041D151D57013E
:10F220006801AA0CBB1CCC1CDD1C85E192EE60E0E1
:10F230000F94C2F1C801AA27BB270F940DF2BB2778
:10F24000A12F902F8F2D0F940DF28E2D0F940DF274
:10F2500090E29093C6008091C00086FFFCCF809121
:10F26000C00080648093C000AEE3A093C60080918C
:10F27000C00086FFFCCF8091C00080648093C000F6
:10F28000C601AA27BB270F940DF2BB27AD2D9C2DDD
:10F290008B2D0F940DF28A2D0F940DF20F94DCF14B
:10F2A000CC5DDE4FE881F981C452D140F99709F471
:10F2B0004DCBF4E0EF2EF12C012D112D6E0C7F1CA7
:10F2C000801E911EF2CD83E093EE62E00F94F5F183
:10F2D0008AE192EE60E00F94C2F18091C00087FF56
:10F2E000FCCF1091C6001F751093C6008091C0001E
:10F2F00086FFFCCF8091C00080648093C0000F9493
:10F30000DCF1812F81548A3108F036C1163409F4BA
:10F3100095C0173490F4133409F44EC0143430F40B
:10F320001134F1F0123409F01DC130C0143409F465
:10F3300059C0153409F016C16BC01A3409F4C4C0A1
:10F340001B3438F4173409F48FC0183409F00AC19B
:10F35000A1C01B3409F4D2C01C3409F003C1E8C0B9
:10F360008FEF81B90DC082B1809582B980E090E0C5
:10F37000E0EDF7E03197F1F70196883C9105C1F790
:10F380008091C00087FFEFCF12B8EFC08FEF84B934
:10F390000DC085B1809585B980E090E0E0EDF7E0A3
:10F3A0003197F1F70196883C9105C1F78091C00033
:10F3B00087FFEFCF15B8D9C08FEF87B90DC088B1DF
:10F3C000809588B980E090E0E0EDF7E03197F1F7C3
:10F3D0000196883C9105C1F78091C00087FFEFCF6F
:10F3E00018B8C3C08FEF8AB90DC08BB180958BB9A7
:10F3F00080E090E0E0EDF7E03197F1F70196883C8E
:10F400009105C1F78091C00087FFEFCF1BB8ADC059
:10F410008FEF8DB90DC08EB180958EB980E090E0F0
:10F42000E0EDF7E03197F1F70196883C9105C1F7DF
:10F430008091C00087FFEFCF1EB897C08FEF80BBD1
:10F440000DC081B3809581BB80E090E0E0EDF7E0F6
:10F450003197F1F70196883C9105C1F78091C00082
:10F4600087FFEFCF11BA81C08FEF83BB0DC084B38C
:10F47000809584BB80E090E0E0EDF7E03197F1F714
:10F480000196883C9105C1F78091C00087FFEFCFBE
:10F4900014BA6BC08FEF809301010FC080910201FD
:10F4A00080958093020180E090E0E0EDF7E03197F5
:10F4B000F1F70196883C9105C1F78091C00087FF64
:10F4C000EDCF1092020151C08FEF809304010FC065
:10F4D0008091050180958093050180E090E0E0ED4A
:10F4E000F7E03197F1F70196883C9105C1F78091DB
:10F4F000C00087FFEDCF1092050137C08FEF8093DA
:10F5000007010FC08091080180958093080180E079
:10F5100090E0E0EDF7E03197F1F70196883C910536
:10F52000C1F78091C00087FFEDCF109208011DC088
:10F530008FEF80930A010FC080910B01809580931B
:10F540000B0180E090E0E0EDF7E03197F1F70196F4
:10F55000883C9105C1F78091C00087FFEDCF1092E4
:10F560000B0103C085E292EEEEC98091C00087FFD7
:10F57000FCCF8091C600EAC988E392EEE4C98CE131
:10F5800091EEE1C988249924933011F1943028F444
:10F59000913089F09230B8F408C0953061F195301F
:10F5A000F0F0963009F048C043C02B3109F042C951
:10F5B00091E06BE13FC96227C15DDE4F2883CF52E6
:10F5C000D14092E037C9B22FA0E0622793E032C960
:10F5D000822F90E0A82BB92B622794E02BC92E3004
:10F5E00009F039C3622795E0C05DDE4F19821882A9
:10F5F000C053D1401FC9E1E0F0E0EC0FFD1FC05D3A
:10F60000DE4F08811981C053D140E00FF11F2083E4
:10F610000F5F1F4FC05DDE4F19830883C053D14079
:10F6200062270A171B0709F005C9D80196E002C92D
:10F63000261709F010C303C0973009F0FBC87724E0
:10F640009981933109F412C19431C8F4963009F4C8
:10F65000D8C0973050F4923009F406C1933009F4C1
:10F660006DC0913009F059C253C0913109F477C08F
:10F67000923108F0BBC0903109F04FC2F5C098310B
:10F6800009F487C0993150F4953109F4EFC09531F0
:10F6900008F4C6C1963109F040C2C2C19A3109F4DA
:10F6A0006CC09A3108F491C09B3109F45BC09D3164
:10F6B00009F033C29D81903359F48F81882311F46E
:10F6C0009EE11CC0813011F091E018C098E916C08D
:10F6D000892F807591F0903539F4E0E0F0E089E011
:10F6E0008093570094910AC0983539F4E3E0F0E034
:10F6F00089E080935700949101C090E01A821B82A8
:10F700008D818C831D829E831F8227E030E009C299
:10F710001A8288E08B8381E48C8386E58D8382E581
:10F720008E8389E48F8383E5888780E589878FE5E9
:10F730008A8782E38B872BE030E0F3C18A818139AD
:10F7400041F0823941F0803911F48FE005C080E04A
:10F7500003C082E001C08AE01A828B8344C0772410
:10F76000739482C08D81882311F48EE12CC0813086
:10F7700011F081E028C088E926C01A82E1E0F0E0BB
:10F7800089E08093570084918B831C8224E030E0D1
:10F79000C8C18B81803589F48C81883039F4E2E0EE
:10F7A000F0E089E08093570084910DC0E0E0F0E044
:10F7B00089E080935700849106C0E3E0F0E089E09F
:10F7C0008093570084911A82DFCF8D81836C99E0FA
:10F7D000E1E0F0E0082E90935700E89507B600FCB2
:10F7E000FDCF1A821B8223E030E09BC180EC8A832C
:10F7F000CE5CDE4F188219821A821B82C253D1401E
:10F800008EC18A8190E0A0E0B0E0582F44273327D2
:10F8100022278B8190E0A0E0B0E0DC0199278827C7
:10F82000282B392B4A2B5B2B8D8190E0A0E0B0E098
:10F83000282B392B4A2B5B2B8C8190E0A0E0B0E089
:10F84000BA2FA92F982F8827282B392B4A2B5B2BCF
:10F85000220F331F441F551FC05EDE4F288339839C
:10F860004A835B83C052D1401A8259C13A81C95C34
:10F87000DE4F3883C753D140CA5CDE4F1882C6536F
:10F88000D1408B81C82EDD24CA5CDE4F488159816E
:10F89000C653D140C42AD52A933109F082C0CE5C28
:10F8A000DE4F88819981AA81BB81C253D1408050AB
:10F8B000904CA340B04030F583E0CE5CDE4FE88052
:10F8C000F9800A811B81C253D140F70100935B008C
:10F8D00080935700E89507B600FCFDCFCE5CDE4F65
:10F8E000088119812A813B81C253D14000501F4FAA
:10F8F0002F4F3F4FCE5CDE4F088319832A833B8313
:10F90000C253D140C05EDE4F488159816A817B81FC
:10F91000C052D140DE011B9631E08C9111962C91A2
:10F9200011971296C75CDE4F2883C953D140C85C3B
:10F93000DE4F1882C853D14090E0C85CDE4FE881AA
:10F94000F981C853D1408E2B9F2B0C01FA01609393
:10F950005B0030935700E89511244E5F5F4F6F4F67
:10F960007F4F0EEFE02E0FEFF02ECE0CDF1CC114F8
:10F97000D10499F685E0C05EDE4F088119812A81A5
:10F980003B81C052D140F80120935B008093570027
:10F99000E89507B600FCFDCF81E180935700E8951C
:10F9A00035C0C05EDE4F88819981AA81BB81C0527B
:10F9B000D140B695A795979587957C018601ABE0D8
:10F9C000AA2EB12CAC0EBD1E0BC0D5016D915D01F0
:10F9D000C7010F947FFE0894E11CF11C01501040F8
:10F9E0000115110591F7A60160E070E0440F551F65
:10F9F000661F771FC05EDE4FE880F9800A811B8199
:10FA0000C052D1404E0D5F1D601F711F1A82C05E33
:10FA1000DE4F488359836A837B83C052D1407FC0C5
:10FA2000FA80C55CDE4FF882CB53D140C65CDE4F16
:10FA30001882CA53D1408B81C82EDD24C65CDE4FAC
:10FA400008811981CA53D140C02AD12A1A828981DA
:10FA5000BE016D5F7F4F843121F59601C05EDE4FA0
:10FA6000E880F9800A811B81C052D1400BBFF701A9
:10FA700087919691DB018C9311969C936E5F7F4FDB
:10FA8000D801C7010296A11DB11DC05EDE4F88835B
:10FA90009983AA83BB83C052D14022503040F1F6F3
:10FAA00036C0C05EDE4F288139814A815B81C052F9
:10FAB000D1400894C108D108760100E010E0089414
:10FAC000C11CD11C0894E11CF11C011D111DE20E8A
:10FAD000F31E041F151F21BDBB27A52F942F832FB5
:10FAE00082BD2F5F3F4F4F4F5F4FF89A80B5DB01CC
:10FAF0008D93BD012E153F054007510761F7C05E8C
:10FB0000DE4F288339834A835B83C052D1409601FC
:10FB10002D5F3F4FFB01108204C080EC8A8322E0FE
:10FB200030E08BE18093C6008091C00086FFFCCF5F
:10FB30008091C00080648093C000C15DDE4FF88179
:10FB4000CF52D140F093C6008091C00086FFFCCF19
:10FB50008091C00080648093C000432F3093C60022
:10FB60008091C00086FFFCCF8091C00080648093AC
:10FB7000C000922F2093C6008091C00086FFFCCF6A
:10FB80008091C00080648093C0008EE08093C600A6
:10FB90008091C00086FFFCCF8091C000806480937C
:10FBA000C00065E1C15DDE4FE880CF52D1406E25D7
:10FBB00069276427FE01319610C090819093C6009A
:10FBC0008091C00086FFFCCF31968091C000806498
:10FBD0008093C0006927215030402115310569F715
:10FBE0006093C6008091C00086FFFCCF8091C0006A
:10FBF00080648093C00085B1805885B9772081F4F6
:10FC0000C15DDE4F0881CF52D1400F5FC15DDE4F35
:10FC10000883CF52D14090E0A0E0B0E00D941AF4F8
:10FC200027982F9880E090E020ED37E0F901319798
:10FC3000F1F7019684369105C9F700008091C00064
:10FC40008D7F8093C00081E180935700E895EE2777
:10FC5000FF270994FFCF90E00D941AF497FB092E2B
:10FC600007260AD077FD04D02ED006D000201AF443
:10FC7000709561957F4F0895F6F7909581959F4F08
:10FC80000895A1E21A2EAA1BBB1BFD010DC0AA1FDD
:10FC9000BB1FEE1FFF1FA217B307E407F50720F0F5
:10FCA000A21BB30BE40BF50B661F771F881F991F70
:10FCB0001A9469F760957095809590959B01AC01B9
:10FCC000BD01CF010895AA1BBB1B51E107C0AA1FAC
:10FCD000BB1FA617B70710F0A61BB70B881F991FED
:10FCE0005A95A9F780959095BC01CD010895F99991
:10FCF000FECF92BD81BDF89A992780B50895262F31
:10FD0000F999FECF1FBA92BD81BD20BD0FB6F89400
:0EFD1000FA9AF99A0FBE01960895F894FFCF63
:00000001FF
